{
  "contractName": "Arca",
  "abi": [
    {
      "inputs": [],
      "payable": false,
      "stateMutability": "nonpayable",
      "type": "constructor"
    },
    {
      "constant": true,
      "inputs": [
        {
          "internalType": "address",
          "name": "",
          "type": "address"
        },
        {
          "internalType": "uint256",
          "name": "",
          "type": "uint256"
        }
      ],
      "name": "adoptantes",
      "outputs": [
        {
          "internalType": "uint256",
          "name": "id",
          "type": "uint256"
        },
        {
          "internalType": "string",
          "name": "raza",
          "type": "string"
        },
        {
          "internalType": "string",
          "name": "sexo",
          "type": "string"
        },
        {
          "internalType": "string",
          "name": "nombre",
          "type": "string"
        },
        {
          "internalType": "string",
          "name": "color",
          "type": "string"
        },
        {
          "internalType": "uint256",
          "name": "edad",
          "type": "uint256"
        },
        {
          "internalType": "address",
          "name": "adoptante",
          "type": "address"
        },
        {
          "internalType": "bool",
          "name": "adoptado",
          "type": "bool"
        }
      ],
      "payable": false,
      "stateMutability": "view",
      "type": "function"
    },
    {
      "constant": true,
      "inputs": [],
      "name": "idgatito",
      "outputs": [
        {
          "internalType": "uint256",
          "name": "",
          "type": "uint256"
        }
      ],
      "payable": false,
      "stateMutability": "view",
      "type": "function"
    },
    {
      "constant": true,
      "inputs": [],
      "name": "owner",
      "outputs": [
        {
          "internalType": "address",
          "name": "",
          "type": "address"
        }
      ],
      "payable": false,
      "stateMutability": "view",
      "type": "function"
    },
    {
      "constant": true,
      "inputs": [
        {
          "internalType": "uint256",
          "name": "",
          "type": "uint256"
        }
      ],
      "name": "todosGatitos",
      "outputs": [
        {
          "internalType": "uint256",
          "name": "id",
          "type": "uint256"
        },
        {
          "internalType": "string",
          "name": "raza",
          "type": "string"
        },
        {
          "internalType": "string",
          "name": "sexo",
          "type": "string"
        },
        {
          "internalType": "string",
          "name": "nombre",
          "type": "string"
        },
        {
          "internalType": "string",
          "name": "color",
          "type": "string"
        },
        {
          "internalType": "uint256",
          "name": "edad",
          "type": "uint256"
        },
        {
          "internalType": "address",
          "name": "adoptante",
          "type": "address"
        },
        {
          "internalType": "bool",
          "name": "adoptado",
          "type": "bool"
        }
      ],
      "payable": false,
      "stateMutability": "view",
      "type": "function"
    },
    {
      "constant": false,
      "inputs": [
        {
          "internalType": "string",
          "name": "_raza",
          "type": "string"
        },
        {
          "internalType": "string",
          "name": "_sexo",
          "type": "string"
        },
        {
          "internalType": "string",
          "name": "_nombre",
          "type": "string"
        },
        {
          "internalType": "string",
          "name": "_color",
          "type": "string"
        },
        {
          "internalType": "uint256",
          "name": "_edad",
          "type": "uint256"
        }
      ],
      "name": "recibirGatito",
      "outputs": [
        {
          "internalType": "bool",
          "name": "",
          "type": "bool"
        }
      ],
      "payable": false,
      "stateMutability": "nonpayable",
      "type": "function"
    },
    {
      "constant": false,
      "inputs": [
        {
          "internalType": "uint256",
          "name": "_gatito",
          "type": "uint256"
        }
      ],
      "name": "adoptarGatito",
      "outputs": [
        {
          "internalType": "bool",
          "name": "",
          "type": "bool"
        }
      ],
      "payable": false,
      "stateMutability": "nonpayable",
      "type": "function"
    }
  ],
  "bytecode": "0x60806040526000805534801561001457600080fd5b5033600360006101000a81548173ffffffffffffffffffffffffffffffffffffffff021916908373ffffffffffffffffffffffffffffffffffffffff16021790555061153e806100656000396000f3fe608060405234801561001057600080fd5b50600436106100625760003560e01c80633b0c9b2114610067578063488bd2cf146102be57806359776153146104f55780638da5cb5b14610513578063ba2d15bf1461055d578063cfd98c99146107ff575b600080fd5b6100b36004803603604081101561007d57600080fd5b81019080803573ffffffffffffffffffffffffffffffffffffffff16906020019092919080359060200190929190505050610845565b60405180898152602001806020018060200180602001806020018881526020018773ffffffffffffffffffffffffffffffffffffffff1673ffffffffffffffffffffffffffffffffffffffff1681526020018615151515815260200185810385528c818151815260200191508051906020019080838360005b8381101561014757808201518184015260208101905061012c565b50505050905090810190601f1680156101745780820380516001836020036101000a031916815260200191505b5085810384528b818151815260200191508051906020019080838360005b838110156101ad578082015181840152602081019050610192565b50505050905090810190601f1680156101da5780820380516001836020036101000a031916815260200191505b5085810383528a818151815260200191508051906020019080838360005b838110156102135780820151818401526020810190506101f8565b50505050905090810190601f1680156102405780820380516001836020036101000a031916815260200191505b50858103825289818151815260200191508051906020019080838360005b8381101561027957808201518184015260208101905061025e565b50505050905090810190601f1680156102a65780820380516001836020036101000a031916815260200191505b509c5050505050505050505050505060405180910390f35b6102ea600480360360208110156102d457600080fd5b8101908080359060200190929190505050610b34565b60405180898152602001806020018060200180602001806020018881526020018773ffffffffffffffffffffffffffffffffffffffff1673ffffffffffffffffffffffffffffffffffffffff1681526020018615151515815260200185810385528c818151815260200191508051906020019080838360005b8381101561037e578082015181840152602081019050610363565b50505050905090810190601f1680156103ab5780820380516001836020036101000a031916815260200191505b5085810384528b818151815260200191508051906020019080838360005b838110156103e45780820151818401526020810190506103c9565b50505050905090810190601f1680156104115780820380516001836020036101000a031916815260200191505b5085810383528a818151815260200191508051906020019080838360005b8381101561044a57808201518184015260208101905061042f565b50505050905090810190601f1680156104775780820380516001836020036101000a031916815260200191505b50858103825289818151815260200191508051906020019080838360005b838110156104b0578082015181840152602081019050610495565b50505050905090810190601f1680156104dd5780820380516001836020036101000a031916815260200191505b509c5050505050505050505050505060405180910390f35b6104fd610e09565b6040518082815260200191505060405180910390f35b61051b610e0f565b604051808273ffffffffffffffffffffffffffffffffffffffff1673ffffffffffffffffffffffffffffffffffffffff16815260200191505060405180910390f35b6107e5600480360360a081101561057357600080fd5b810190808035906020019064010000000081111561059057600080fd5b8201836020820111156105a257600080fd5b803590602001918460018302840111640100000000831117156105c457600080fd5b91908080601f016020809104026020016040519081016040528093929190818152602001838380828437600081840152601f19601f8201169050808301925050505050505091929192908035906020019064010000000081111561062757600080fd5b82018360208201111561063957600080fd5b8035906020019184600183028401116401000000008311171561065b57600080fd5b91908080601f016020809104026020016040519081016040528093929190818152602001838380828437600081840152601f19601f820116905080830192505050505050509192919290803590602001906401000000008111156106be57600080fd5b8201836020820111156106d057600080fd5b803590602001918460018302840111640100000000831117156106f257600080fd5b91908080601f016020809104026020016040519081016040528093929190818152602001838380828437600081840152601f19601f8201169050808301925050505050505091929192908035906020019064010000000081111561075557600080fd5b82018360208201111561076757600080fd5b8035906020019184600183028401116401000000008311171561078957600080fd5b91908080601f016020809104026020016040519081016040528093929190818152602001838380828437600081840152601f19601f82011690508083019250505050505050919291929080359060200190929190505050610e35565b604051808215151515815260200191505060405180910390f35b61082b6004803603602081101561081557600080fd5b8101908080359060200190929190505050611016565b604051808215151515815260200191505060405180910390f35b6001602052816000526040600020818154811061085e57fe5b906000526020600020906007020160009150915050806000015490806001018054600181600116156101000203166002900480601f0160208091040260200160405190810160405280929190818152602001828054600181600116156101000203166002900480156109115780601f106108e657610100808354040283529160200191610911565b820191906000526020600020905b8154815290600101906020018083116108f457829003601f168201915b505050505090806002018054600181600116156101000203166002900480601f0160208091040260200160405190810160405280929190818152602001828054600181600116156101000203166002900480156109af5780601f10610984576101008083540402835291602001916109af565b820191906000526020600020905b81548152906001019060200180831161099257829003601f168201915b505050505090806003018054600181600116156101000203166002900480601f016020809104026020016040519081016040528092919081815260200182805460018160011615610100020316600290048015610a4d5780601f10610a2257610100808354040283529160200191610a4d565b820191906000526020600020905b815481529060010190602001808311610a3057829003601f168201915b505050505090806004018054600181600116156101000203166002900480601f016020809104026020016040519081016040528092919081815260200182805460018160011615610100020316600290048015610aeb5780601f10610ac057610100808354040283529160200191610aeb565b820191906000526020600020905b815481529060010190602001808311610ace57829003601f168201915b5050505050908060050154908060060160009054906101000a900473ffffffffffffffffffffffffffffffffffffffff16908060060160149054906101000a900460ff16905088565b6002602052806000526040600020600091509050806000015490806001018054600181600116156101000203166002900480601f016020809104026020016040519081016040528092919081815260200182805460018160011615610100020316600290048015610be65780601f10610bbb57610100808354040283529160200191610be6565b820191906000526020600020905b815481529060010190602001808311610bc957829003601f168201915b505050505090806002018054600181600116156101000203166002900480601f016020809104026020016040519081016040528092919081815260200182805460018160011615610100020316600290048015610c845780601f10610c5957610100808354040283529160200191610c84565b820191906000526020600020905b815481529060010190602001808311610c6757829003601f168201915b505050505090806003018054600181600116156101000203166002900480601f016020809104026020016040519081016040528092919081815260200182805460018160011615610100020316600290048015610d225780601f10610cf757610100808354040283529160200191610d22565b820191906000526020600020905b815481529060010190602001808311610d0557829003601f168201915b505050505090806004018054600181600116156101000203166002900480601f016020809104026020016040519081016040528092919081815260200182805460018160011615610100020316600290048015610dc05780601f10610d9557610100808354040283529160200191610dc0565b820191906000526020600020905b815481529060010190602001808311610da357829003601f168201915b5050505050908060050154908060060160009054906101000a900473ffffffffffffffffffffffffffffffffffffffff16908060060160149054906101000a900460ff16905088565b60005481565b600360009054906101000a900473ffffffffffffffffffffffffffffffffffffffff1681565b6000600360009054906101000a900473ffffffffffffffffffffffffffffffffffffffff1673ffffffffffffffffffffffffffffffffffffffff163373ffffffffffffffffffffffffffffffffffffffff1614610e9157600080fd5b610e9961135e565b604051806101000160405280600080815480929190600101919050558152602001888152602001878152602001868152602001858152602001848152602001600073ffffffffffffffffffffffffffffffffffffffff168152602001600015158152509050806002600083600001518152602001908152602001600020600082015181600001556020820151816001019080519060200190610f3c9291906113bb565b506040820151816002019080519060200190610f599291906113bb565b506060820151816003019080519060200190610f769291906113bb565b506080820151816004019080519060200190610f939291906113bb565b5060a0820151816005015560c08201518160060160006101000a81548173ffffffffffffffffffffffffffffffffffffffff021916908373ffffffffffffffffffffffffffffffffffffffff16021790555060e08201518160060160146101000a81548160ff021916908315150217905550905050600191505095945050505050565b6000805482111561108f576040517f08c379a00000000000000000000000000000000000000000000000000000000081526004018080602001828103825260138152602001807f456c2067617469746f206e6f206578697374650000000000000000000000000081525060200191505060405180910390fd5b6002600083815260200190815260200160002060060160149054906101000a900460ff1615611109576040517f08c379a00000000000000000000000000000000000000000000000000000000081526004018080602001828103825260228152602001806114e86022913960400191505060405180910390fd5b336002600084815260200190815260200160002060060160006101000a81548173ffffffffffffffffffffffffffffffffffffffff021916908373ffffffffffffffffffffffffffffffffffffffff16021790555060016002600084815260200190815260200160002060060160146101000a81548160ff021916908315150217905550600160003373ffffffffffffffffffffffffffffffffffffffff1673ffffffffffffffffffffffffffffffffffffffff1681526020019081526020016000206002600084815260200190815260200160002090806001815401808255809150509060018203906000526020600020906007020160009091929091909150600082015481600001556001820181600101908054600181600116156101000203166002900461123b92919061143b565b506002820181600201908054600181600116156101000203166002900461126392919061143b565b506003820181600301908054600181600116156101000203166002900461128b92919061143b565b50600482018160040190805460018160011615610100020316600290046112b392919061143b565b50600582015481600501556006820160009054906101000a900473ffffffffffffffffffffffffffffffffffffffff168160060160006101000a81548173ffffffffffffffffffffffffffffffffffffffff021916908373ffffffffffffffffffffffffffffffffffffffff1602179055506006820160149054906101000a900460ff168160060160146101000a81548160ff02191690831515021790555050505060019050919050565b604051806101000160405280600081526020016060815260200160608152602001606081526020016060815260200160008152602001600073ffffffffffffffffffffffffffffffffffffffff1681526020016000151581525090565b828054600181600116156101000203166002900490600052602060002090601f016020900481019282601f106113fc57805160ff191683800117855561142a565b8280016001018555821561142a579182015b8281111561142957825182559160200191906001019061140e565b5b50905061143791906114c2565b5090565b828054600181600116156101000203166002900490600052602060002090601f016020900481019282601f1061147457805485556114b1565b828001600101855582156114b157600052602060002091601f016020900482015b828111156114b0578254825591600101919060010190611495565b5b5090506114be91906114c2565b5090565b6114e491905b808211156114e05760008160009055506001016114c8565b5090565b9056fe456c2074617469746f20796120736520656e6375656e7472612061646f707461646fa265627a7a723158208cad6bb467c95cd919d2720cef2b545aad7bae2c6810a06fbb4fbe4c565bfd6564736f6c63430005100032",
  "source": "pragma solidity >= 0.5.0 < 0.6.0;\n\ncontract Arca {\n    uint public idgatito = 0;\n\n    struct gatito{\n        uint id;\n        string raza;\n        string sexo;\n        string nombre;\n        string color;\n        uint edad;\n        address adoptante;\n        bool adoptado;\n    }\n    \n    mapping (address => gatito[]) public adoptantes;\n    mapping (uint => gatito) public todosGatitos;\n    \n    \n    // Modificadores\n    address public owner;\n    modifier onlyOwner(){\n        require(msg.sender == owner);\n        _;\n    }\n    // Crear un constructor para nuestro ADMIMISTRADOR (Proteger contrato)\n    constructor() public{\n        owner = msg.sender;\n    }\n    \n    \n    function recibirGatito(\n        string memory _raza,\n        string memory _sexo,\n        string memory _nombre,\n        string memory _color,\n        uint _edad\n        ) public onlyOwner returns (bool){\n        gatito memory nuevoGatito = gatito({raza: _raza, sexo: _sexo, nombre: _nombre, color: _color, edad: _edad, id: idgatito++, adoptado: false, adoptante: address(0)});\n        // adoptantes[msg.sender].push(nuevoGatito);\n        todosGatitos[nuevoGatito.id] = nuevoGatito;    \n        return true;\n    }\n\n    function adoptarGatito(uint _gatito) public returns (bool){\n        //Validar si el gatito existe\n        require(_gatito <= idgatito, \"El gatito no existe\");\n        // Validar si gatito no esta adoptado\n        require(!todosGatitos[_gatito].adoptado, \"El tatito ya se encuentra adoptado\");\n        // Actualizamos gatitos\n        todosGatitos[_gatito].adoptante = msg.sender;\n        todosGatitos[_gatito].adoptado = true;\n        // Agregar adoptantes\n        adoptantes[msg.sender].push(todosGatitos[_gatito]);\n        return true;\n        \n    }\n}",
  "sourcePath": "/home/jservin/arcaproject/contracts/Arca.sol",
  "compiler": {
    "name": "solc",
    "version": "0.5.16+commit.9c3226ce.Emscripten.clang"
  },
  "schemaVersion": "3.0.23",
  "updatedAt": "2020-02-22T17:05:26.145Z",
  "networkType": "ethereum",
  "devdoc": {
    "methods": {}
  },
  "userdoc": {
    "methods": {}
  }
}